:020000040000FA
:10000000900500206D0200007102000073020000E4
:100010007502000077020000790200000000000075
:100020000000000000000000000000007B02000053
:100030007D020000000000007F02000001050000BA
:10004000830200008302000083020000830200009C
:10005000830200008302000083020000830200008C
:10006000830200008302000083020000830200007C
:10007000830200008302000083020000830200006C
:10008000830200008302000083020000830200005C
:10009000830200008302000083020000830200004C
:1000A000830200008302000083020000830200003C
:1000B0008302000083020000590400008302000054
:1000C000830200008302000083020000830200001C
:1000D000830200008302000083020000830200000C
:1000E00083020000830200008302000083020000FC
:1000F00083020000830200008302000083020000EC
:1001000083020000830200008302000083020000DB
:1001100083020000830200008302000083020000CB
:1001200083020000830200008302000083020000BB
:1001300083020000830200008302000083020000AB
:1001400000000000000000000000000000000000AF
:10015000830200008302000083020000830200008B
:10016000000000000000000000000000000000008F
:10017000000000000000000000000000000000007F
:10018000000000000000000000000000000000006F
:10019000000000000000000000000000000000005F
:1001A000000000000000000000000000000000004F
:1001B000830200008302000083020000830200002B
:1001C000830200008302000083020000830200001B
:1001D000830200008302000083020000830200000B
:1001E00083020000830200008302000083020000FB
:1001F00083020000830200008302000083020000EB
:10020000830200008302000083020000000000005F
:1002100083020000830200008302000083020000CA
:1002200083020000830200008302000083020000BA
:1002300083020000830200008302000083020000AA
:10024000830200008302000083020000830200009A
:10025000830200008302000083020000830200008A
:1002600083020000830200008302000000F00AB84D
:10027000FEE7FEE7FEE7FEE7FEE7FEE7FEE7FEE756
:10028000FEE7FEE700F002F800F03CF80AA090E874
:10029000000C82448344AAF10107DA4501D100F041
:1002A00031F8AFF2090EBAE80F0013F0010F18BFD2
:1002B000FB1A43F00103184794070000B40700003D
:1002C000103A24BF78C878C1FAD8520724BF30C882
:1002D00030C144BF04680C60704700000023002454
:1002E00000250026103A28BF78C1FBD8520728BF46
:1002F00030C148BF0B6070471FB500F061F81FBDEB
:1003000010B510BD00F06EF81146FFF7F5FF00F0D4
:1003100057FB00F08CF803B4FFF7F2FF03BC00F0CA
:1003200095F8000072B6704762B67047EFF3108020
:1003300072B6704780F31088704730BF704702482C
:100340000249014A024B70479001002090050020AD
:100350009001002010B5203AC0F00B80B1E8185091
:10036000A0E81850B1E81850A0E81850203ABFF49F
:10037000F5AF5FEA027C24BFB1E81850A0E818503E
:1003800044BF18C918C0BDE810405FEA827C24BF92
:1003900051F8043B40F8043B08BF7047D20728BF20
:1003A00031F8023B48BF11F8012B28BF20F8023B6F
:1003B00048BF00F8012B7047704770477047000036
:1003C00070B5064C7C44064D7D4404E0204601682F
:1003D00008448047241DAC42F8D170BDA40600003B
:1003E000A4060000754600F02BF8AE4605006946ED
:1003F000534620F00700854618B020B5FFF79FFF51
:10040000BDE820404FF000064FF000074FF0000815
:100410004FF0000BAC46ACE8C009ACE8C009ACE852
:10042000C009ACE8C00921F007018D46704710B53E
:100430000446AFF300802046BDE81040FFF76BBFD5
:1004400000487047C800002070470000014918208C
:10045000ABBEFEE72600020080B545F21440C4F2B0
:1004600002000068C006002815D5FFE740F22810FA
:10047000C2F2000000F046F968B1FFE745F21C4106
:10048000C4F202011020086040F22810C2F20000FD
:1004900000F05CF91EE045F21440C4F2020000686E
:1004A000C006002815D5FFE740F22810C2F2000070
:1004B00000F028F968B9FFE745F21C41C4F20201D7
:1004C0001020086040F22810C2F2000000F036F957
:1004D000FFE7FFE745F21440C4F202000068C007DE
:1004E00068B1FFE745F21C41C4F202010120086037
:1004F00040F22810C2F2000000F032F9FFE780BDA0
:100500004EF21001CEF20001086820F001000860F0
:1005100044F22002C4F20002106880F0080010606B
:100520004EF21802CEF2000200201060086840F07F
:10053000010008607047000080B500F029FA00F063
:100540002FFA00F035FA80BD82B001908DF80310CB
:1005500001999DF803000978401AB0FA80F040092B
:1005600002B0704780B586B005900598029090F86B
:1005700060108DF8131000218DF8121090F86010A3
:1005800000EB8100406D0390FFE703989DF8121087
:1005900000EB41004078002860D0FFE703989DF809
:1005A000121010F8111040F20000C2F20000FFF724
:1005B000CBFF38B1FFE740F28D10C2F2000000F02F
:1005C000B5F912E0029803999DF8122011F8121063
:1005D00050F8211040F28D10C2F20000019000F09E
:1005E00093F9019800F0AEF9FFE700208DF81100B3
:1005F000FFE79DF8110003999DF8122001EB4201DD
:10060000497888421EDAFFE7029890F860009DF86A
:100610001310884205D1FFE7029800F073F838B94B
:10062000FFE740F28D10C2F2000000F07FF928E0F1
:10063000029800F071F8FFE79DF8110001308DF885
:100640001100D6E740F28D10C2F2000000F06EF902
:100650009DF8120001308DF8120096E700208DF809
:100660001100FFE79DF811000E280ADCFFE7029851
:1006700000F052F8FFE79DF8110001308DF81100ED
:10068000F0E706B080BD000082B001904EF2081085
:10069000C4F20F00016841F00101016000680090A0
:1006A00044F22C51C4F20001086820F47060086024
:1006B00044F22851C4F20001086820F008000860E4
:1006C00044F20041C4F20001086840F008000860EC
:1006D00044F22041C4F20001086820F008000860DC
:1006E00044F21C51C4F20001086840F008000860A0
:1006F00044F20851C4F20001086840F008000860A4
:1007000002B0704781B00090009890F8610000F04E
:10071000010001B07047000082B0019047F258001C
:10072000C0F202000090FFE7009820B1FFE70098B8
:1007300001380090F8E702B07047000081B00090E7
:100740000099012081F8610001B0704781B00090EC
:100750000099002081F8610081F8600001B07047C5
:1007600082B001900198009090F8600000280DD4AC
:10077000FFE7009890F86000002807DCFFE7009989
:1007800091F86000013081F8600004E000990020D9
:1007900081F86000FFE702B07047000080B582B0CA
:1007A00001900198009040F6F811C0F20001542227
:1007B000FFF7D0FD009840F20001C2F200018A1C50
:1007C000426501F13C0282657031C165002180F80B
:1007D000601080F86110FFF757FF009802B080BDED
:1007E00082B00090009801904EF20811C4F20F01FF
:1007F000086840F020000860FFE74EF20810C4F2DD
:100800000F00006800F02000202801D0FFE7F4E787
:1008100045F22051C4F2020144F24B30C4F64F407D
:10082000086045F22451C4F20201086840F01F003C
:10083000086045F22851C4F20201086820F01F0048
:10084000086045F22C51C4F2020108686FF31300EE
:10085000086045F20041C4F20201086820F011006E
:10086000086045F22041C4F20201086820F01F0030
:10087000086045F21051C4F20201086840F011000E
:10088000086045F21C51C4F20201086840F01F00E4
:10089000086045F20441C4F20201086820F011002A
:1008A000086045F20841C4F20201086820F0110016
:1008B000086045F20C41C4F20201086820F0110002
:1008C000086045F21C41C4F202011120086045F2A3
:1008D0001041C4F20201086840F0110008604EF2B5
:1008E0001C41CEF200010868022262F357500860F2
:1008F0004EF20011CEF20001086840F0804008601E
:10090000019802B07047000082B0019000910098F9
:1009100001384EF21401CEF2000108604EF21801C7
:10092000CEF200010020086002B0704781B0009054
:100930004EF21001CEF20001086820F001000860BC
:1009400001B0704781B000904EF21001CEF200016C
:10095000086840F00100086001B0704781B0009065
:1009600000984EF21002CEF20002002111604EF605
:100970002053CEF2000319684FF0400C6CF31F6156
:100980001960116841F00601116001B07047000064
:1009900080B540F22810C2F20000FFF7FFFE80BDD4
:1009A00080B540F28D10C2F20000FFF7D7FF80BD86
:1009B00080B540F28C10C2F20000FFF711FF80BD3D
:1009C00080B582B000200190FFF7ACFCFFF7ACFCD3
:1009D000FFE740F22810C2F20000FFF793FE38B1A3
:1009E000FFE740F22810C2F20000FFF7BBFD02E073
:1009F000FFF7A3FCFFE7ECE7467700004B6A000037
:100A0000B25E00008B590000B84F0000064700009E
:100A1000423F0000B93B000035350000672F000061
:100A2000BE2C0000DC27000083230000A31F000071
:100A3000DD1D00009A1A0000B31700005F160000C9
:100A4000EE130000C1110000D20F0000700A000078
:100A500000000020C8000000C0020000380B0000A9
:100A6000C8000020C8040000DC020000CDFAFFFF2F
:100A7000FF64040204020504040407040604FF04DE
:100A8000040204020504040408040704FF04040229
:100A900004020B040904070406040508FF040A0203
:100AA0000A020904070408040708000002040104FC
:100AB0000004010402040204020801040104010804
:100AC00002040404040802040104000401040204F2
:100AD00002040208010401040204010400080000E9
:100AE00000040004040404040504050404080304C9
:100AF00003040204020401040104000804040404C1
:100B000003040304020402040108040404040304AB
:100B100003040204020401080004000404040404A1
:100B20000504050404080304030402040204010488
:080B30000104000800000000B0
:040000050000026D88
:00000001FF
