:020000040000FA
:10000000200800206D020000710200007302000051
:100010007502000077020000790200000000000075
:100020000000000000000000000000007B02000053
:100030007D020000000000007F020000C9060000F1
:10004000830200008302000083020000C504000058
:10005000830200008302000083020000830200008C
:10006000830200008302000083020000830200007C
:10007000830200008302000083020000830200006C
:10008000830200008302000083020000830200005C
:10009000830200008302000083020000830200004C
:1000A000830200008302000083020000830200003C
:1000B00083020000830200000906000083020000A2
:1000C000830200008302000083020000830200001C
:1000D000830200008302000083020000830200000C
:1000E00083020000830200008302000083020000FC
:1000F00083020000830200008302000083020000EC
:1001000083020000830200008302000083020000DB
:1001100083020000830200008302000083020000CB
:1001200083020000830200008302000083020000BB
:1001300083020000830200008302000083020000AB
:1001400000000000000000000000000000000000AF
:10015000830200008302000083020000830200008B
:10016000000000000000000000000000000000008F
:10017000000000000000000000000000000000007F
:10018000000000000000000000000000000000006F
:10019000000000000000000000000000000000005F
:1001A000000000000000000000000000000000004F
:1001B000830200008302000083020000830200002B
:1001C000830200008302000083020000830200001B
:1001D000830200008302000083020000830200000B
:1001E00083020000830200008302000083020000FB
:1001F00083020000830200008302000083020000EB
:10020000830200008302000083020000000000005F
:1002100083020000830200008302000083020000CA
:1002200083020000830200008302000083020000BA
:1002300083020000830200008302000083020000AA
:10024000830200008302000083020000830200009A
:10025000830200008302000083020000830200008A
:1002600083020000830200008302000000F00AB84D
:10027000FEE7FEE7FEE7FEE7FEE7FEE7FEE7FEE756
:10028000FEE7FEE700F002F800F02EF80AA090E882
:10029000000C82448344AAF10107DA4501D100F041
:1002A00023F8AFF2090EBAE80F0013F0010F18BFE0
:1002B000FB1A43F001031847CC0E0000DC0E0000CF
:1002C0000023002400250026103A28BF78C1FBD85F
:1002D000520728BF30C148BF0B6070471FB500F000
:1002E000A5F81FBD10B510BD00F0B2F81146FFF71C
:1002F000F5FF00F079FE00F0D0F803B4FFF7F2FF4D
:1003000003BC00F0D9F8000072B6704762B67047BF
:10031000EFF3108072B6704780F31088704730BFDB
:10032000704702480249014A024B704720040020EE
:100330002008002020040020032A40F2308010F022
:10034000030C00F0158011F8013BBCF1020F624470
:1003500098BF11F801CB00F8013B38BF11F8013B01
:10036000A2F1040298BF00F801CB38BF00F8013BAE
:1003700011F0030300F02580083AC0F0088051F81E
:10038000043B083A51F804CBA0E80810F5E7121D29
:100390005CBF51F8043B40F8043BAFF30080D20748
:1003A00024BF11F8013B11F801CB48BF11F8012B14
:1003B00024BF00F8013B00F801CB48BF00F8012B37
:1003C000704710B5203AC0F00B80B1E81850A0E893
:1003D0001850B1E81850A0E81850203ABFF4F5AF13
:1003E0005FEA027C24BFB1E81850A0E8185044BF6F
:1003F00018C918C0BDE810405FEA827C24BF51F8DC
:10040000043B40F8043B08BF7047D20728BF31F8CF
:10041000023B48BF11F8012B28BF20F8023B48BF20
:1004200000F8012B704770477047704770B5064C55
:100430007C44064D7D4404E0204601680844804722
:10044000241DAC42F8D170BD600D0000640D0000A9
:10045000754600F02BF8AE4605006946534620F07D
:100460000700854618B020B5FFF75BFFBDE82040C8
:100470004FF000064FF000074FF000084FF0000B60
:10048000AC46ACE8C009ACE8C009ACE8C009ACE8CF
:10049000C00921F007018D46704710B50446AFF33F
:1004A00000802046BDE81040FFF727BF0048704796
:1004B000000000207047000001491820ABBEFEE795
:1004C0002600020080B582B000200190FFE701986D
:1004D00041F61341C0F20101884205D8FFE7FFE76A
:1004E000019801300190F2E740F26030C2F2000062
:1004F00000F092FC002840F08480FFE747F21440AF
:10050000C4F200000068C007B8B1FFE747F21C4121
:10051000C4F2000101200860FFE747F2FC30C4F29A
:1005200000000068C00738B9FFE740F22C10C2F2A3
:10053000000000F08BFBF0E7FFE747F21440C4F245
:10054000000000688007002818D5FFE747F21C412B
:10055000C4F2000102200860FFE747F2FC30C4F259
:10056000000000688007002807D4FFE740F22C1045
:10057000C2F2000000F08AFBEFE7FFE747F2144009
:10058000C4F2000000684007002818D5FFE747F2D2
:100590001C41C4F2000104200860FFE747F2FC3070
:1005A000C4F2000000684007002807D4FFE740F2CB
:1005B0002C10C2F2000000F08BFBEFE7FFE747F2E0
:1005C0001440C4F2000000680007002818D5FFE7B7
:1005D00047F21C41C4F2000108200860FFE747F21F
:1005E000FC30C4F2000000680007002807D4FFE7D1
:1005F00040F22C10C2F2000000F08CFBEFE7FFE7A6
:10060000FFE702B080BD000080B582B000200190FD
:10061000FFE7019841F61341C0F20101884205D875
:10062000FFE7FFE7019801300190F2E745F214403F
:10063000C4F202000068C006002814D5FFE745F2A6
:100640001C41C4F202011020086040F26030C2F286
:100650000000009000F0E0FB0146009881F00101ED
:1006600000F0E2FBFFE745F21440C4F2020000682C
:10067000C00730B3FFE745F21C41C4F2020101207C
:10068000086040F26030C2F2000000F0C5FB38B9EB
:10069000FFE740F26030C2F2000000F067FB0FE0BD
:1006A00040F26030C2F2000000F0B6FB38B1FFE764
:1006B00040F26400C2F2000000F0F6F9FFE7FFE745
:1006C000FFE702B080BD000080B545F2FC31C4F206
:1006D0000201086880F00800086040F26030C2F251
:1006E000000000F0EBFB80BD80B500F065FC80BD34
:1006F00080B500F059FC00F067FC00F06DFC80BD97
:1007000081B000904EF20811C4F20F01086840F069
:1007100008000860FFE74EF20810C4F20F000068FE
:1007200000F00800082801D0FFE7F4E747F2205165
:10073000C4F2000144F24B30C4F64F40086047F267
:100740002451C4F20001086840F01F00086047F21D
:100750002851C4F20001086820F01F00086047F229
:100760002C51C4F2000108686FF31300086047F2CF
:100770000041C4F20001086820F01F00086047F241
:100780002041C4F20001086820F01F00086047F211
:100790001051C4F20001086840F01F00086047F2E1
:1007A0001C51C4F20001086840F01F00086047F2C5
:1007B0000441C4F20001086820F01F00086047F2FD
:1007C0000841C4F20001086820F01F00086047F2E9
:1007D0000C41C4F20001086820F01F00086047F2D5
:1007E0001C41C4F200011F20086047F21041C4F20E
:1007F0000001086840F01F0008604EF20041CEF290
:1008000000010868042262F35F7008604EF2001174
:10081000CEF20001086840F00800086001B070479F
:1008200081B000904EF20811C4F20F01086840F048
:1008300020000860FFE74EF20810C4F20F000068C5
:1008400000F02000202801D0FFE7F4E745F2205116
:10085000C4F2020144F24B30C4F64F40086045F246
:100860002451C4F20201086840F01F00086045F2FC
:100870002851C4F20201086820F01F00086045F208
:100880002C51C4F2020108686FF31300086045F2AE
:100890000041C4F20201086820F01100086045F22E
:1008A0002041C4F20201086820F01F00086045F2F0
:1008B0001051C4F20201086840F01100086045F2CE
:1008C0001C51C4F20201086840F01F00086045F2A4
:1008D0000441C4F20201086820F01100086045F2EA
:1008E0000841C4F20201086820F01100086045F2D6
:1008F0000C41C4F20201086820F01100086045F2C2
:100900001C41C4F202011120086045F21041C4F2FA
:100910000201086840F0110008604EF21C41CEF25E
:1009200000010868022262F3575008604EF200117D
:10093000CEF20001086840F08040086001B07047C6
:1009400080B582B0019001980090FFF769FF009890
:10095000FFF7D6FE02B080BDB0B582B0019001981D
:10096000009000F0BDFA0098642180F8B7100423CD
:1009700080F8B8304FF0020E80F8B9E080F8BA3055
:1009800080F8BBE0052480F8BC4080F8BD3080F8DA
:10099000BE3080F8BF30072280F8C02080F8C13018
:1009A000062580F8C25080F8C33090F8B41080F863
:1009B000C41080F8C53080F8C63080F8C7E080F8F1
:1009C000C83080F8C9E080F8CA4080F8CB3080F8A1
:1009D000CC3080F8CD30082180F8CE1080F8CF30B0
:1009E00080F8D02080F8D13090F8B4C080F8D2C020
:1009F00080F8D33080F8D43080F8D5E080F8D63055
:100A000080F8D7E04FF00B0C80F8D8C080F8D930D0
:100A10004FF0090C80F8DAC080F8DB3080F8DC2079
:100A200080F8DD3080F8DE5080F8DF3080F8E0407C
:100A300080F8E11090F8B44080F8E24080F8E330AC
:100A40000A2480F8E44080F8E5E080F8E64080F889
:100A5000E7E080F8E8C080F8E93080F8EA2080F824
:100A6000EB3080F8EC1080F8ED3080F8EE2080F864
:100A7000EF10002180F8F01080F8F110F23041F210
:100A80008A01C0F200013422FFF756FC009800F5FD
:100A9000937041F2BE01C0F200015622FFF74CFCF8
:100AA000009802B0B0BD000081B00090009991F8AC
:100AB000C40001304AF6AB22CAF6AA22A0FB0232D9
:100AC000520802EB4202801A81F8C40001B070475C
:100AD00080B584B003900398009090F8C4108DF80E
:100AE0000B1000218DF80A1090F8C41000EB810063
:100AF000D0F8B8000190FFE701989DF80A1000EBCC
:100B000041004078002870D0FFE7009901989DF8D7
:100B10000A2010F8120091F8B410884207D1FFE7BC
:100B200040F26030C2F2000000F046F915E0009992
:100B300001989DF80A2010F812C040F26030C2F20D
:100B4000000090F8B62091F8B53012FB03C201EB1B
:100B50008201496C00F04EF9FFE700208DF8090092
:100B6000FFE79DF8090001999DF80A2001EB420179
:100B7000497888422DDAFFE7009890F8C4009DF884
:100B80000B10884207D0FFE740F26030C2F200004D
:100B900000F012F93CE040F26030C2F2000000F0D8
:100BA0003BF958B9FFE740F26030C2F2000000F0B4
:100BB00003F90099002081F8C40029E0FFE70098BC
:100BC00000F006F9FFE79DF8090001308DF80900F3
:100BD000C7E740F26030C2F2000000F0EDF89DF887
:100BE0000A0001308DF80A0086E700208DF8090020
:100BF000FFE79DF809000E280ADCFFE7009800F0E7
:100C0000E7F8FFE79DF8090001308DF80900F0E7EB
:100C100004B080BD80B582B001900198009000F0D2
:100C20005FF9009840F2E411C2F2000101F1F20212
:100C3000C0F8B82001F59372C0F8BC20B831C0F8F4
:100C4000C010002180F8C41002B080BD80B584B00F
:100C500003900399009140F26030C2F200000190CD
:100C600090F8B62091F8B5305A438DF80B209DF8D6
:100C70000B2001EB8201496C00F0BCF8009800F0F9
:100C8000A7F8019800F098F804B080BD80B584B052
:100C900003900399009140F26030C2F2000001908D
:100CA00090F8B62091F8B5305A4301328DF80B20F8
:100CB0009DF80B2001EB8201496C00F09BF8009835
:100CC00000F086F8019800F077F804B080BD0000CD
:100CD00080B584B003900399009140F26030C2F275
:100CE0000000019090F8B62091F8B5305A430232D6
:100CF0008DF80B209DF80B2001EB8201496C00F070
:100D000079F8009800F064F8019800F055F804B004
:100D100080BD000080B584B003900399009140F23B
:100D20006030C2F20000019090F8B62091F8B53022
:100D30005A4303328DF80B209DF80B2001EB820102
:100D4000496C00F057F8009800F042F8019800F064
:100D500033F804B080BD000080B582B001900198E6
:100D6000009000F0BDF8009802B080BD81B0009006
:100D700000990A7891F8B600431CB3FBF2F000FB2F
:100D8000123081F8B60001B07047000080B582B023
:100D90000190019900910020887081F8B600487098
:100DA00040F21840C2F2000000F0CEF8009800F0C7
:100DB00047F802B080BD000080B582B0019040F2DB
:100DC0001840C2F2000000F0D7F802B080BD000069
:100DD00082B0019047F25800C0F202000090FFE795
:100DE000009820B1FFE7009801380090F8E702B0C2
:100DF0007047000080B584B0039002910298810989
:100E000040F21840C2F20000019000F08BF8019807
:100E100000F0BEF804B080BD81B0009000988078EA
:100E200000F0010001B0704782B001908DF803100E
:100E300001999DF8030000F00100887002B070472E
:100E400082B001904EF20810C4F20F00016841F028
:100E5000020101600068009045F22851C4F20001CF
:100E6000086820F03F00086045F22C51C4F20001F0
:100E7000086800F07F40086045F20041C4F20001BC
:100E8000086840F03F00086045F22041C4F20001CC
:100E9000086820F03F00086045F21C51C4F20001D0
:100EA000086840F03F00086045F20851C4F20001B4
:100EB000086840F03F00086002B0704781B00090C1
:100EC00000984178013101F03F01417041780844B8
:100ED000C07845F2FC11C4F20001086001B070470F
:100EE00080B582B001900198009003210170033019
:100EF00041F24A01C0F200014022FFF71DFA0098BA
:100F0000443041F21411C0F200017022FFF759FA87
:100F10000098FF2180F8B410072180F8B51002B0C6
:100F200080BD000082B001900091009801384EF21F
:100F30001401CEF2000108604EF21801CEF2000159
:100F40000020086002B0704781B000904EF210019E
:100F5000CEF20001002008604EF62052CEF20002D0
:100F60001068202363F31F601060086840F00600DB
:100F7000086001B07047000081B000904EF210018F
:100F8000CEF20001086820F00100086001B070474F
:100F900081B000904EF21001CEF20001086840F0DE
:100FA0000100086001B0704780B540F26030C2F2C5
:100FB0000000FFF795FF80BD80B540F2E410C2F25B
:100FC0000000FFF7C9FC80BD80B540F26400C2F2AA
:100FD0000000FFF71FFE80BD80B540F22C10C2F26A
:100FE0000000FFF7B9FE80BD80B582B000200190FF
:100FF000FFF78AF940F26030C2F20000FFF7C6FE48
:1010000040F26000C2F20000FFF79AFCFFF77EF9A1
:10101000FFE740F26030C2F20000FFF7FDFE18B9B2
:10102000FFE7FFF77CF90FE040F26030C2F200000A
:10103000FFF7F2FE38B1FFE740F26400C2F20000B1
:10104000FFF746FDFFE7FFE7E3E7202326292C2FE4
:10105000313436383A3B3D3E3E3F3F3F3E3E3D3BDE
:101060003A383634312F2C292623201D1A17141113
:101070000F0C0A0806050302020101010202030522
:1010800006080A0C0F1114171A1D020401040004AB
:10109000010402040204020801040104010802041C
:1010A000040404080204010400040104020402040C
:1010B0000208010401040204010400080000000405
:1010C00000040404040405040504040803040304E0
:1010D00002040204010401040008040404040304DB
:1010E00003040204020401080404040403040304C6
:1010F00002040204010800040004040404040504BA
:1011000005040408030403040204020401040104A6
:101110000008000019DD01002CA90100CA7A0100B5
:1011200025650100E13E0100171C010009FD0000DA
:101130008CEE000096D4000064BD000016B30000E1
:10114000709F00000C8E0000847E0000727700000B
:101150006A6A0000CE5E00007C590000B84F0000B3
:1011600006470000463F0000BA3B0000343500004F
:10117000662F0000BE2C0000DC2700008223000048
:10118000A41F00009C1100000000002020080000A7
:0C119000C00200005DF5FFFF51F5FFFFFD
:040000050000026D88
:00000001FF
